{
  "contractName": "Car",
  "abi": [
    {
      "inputs": [
        {
          "internalType": "contract CarManager",
          "name": "_parentContract",
          "type": "address"
        },
        {
          "internalType": "uint256",
          "name": "_priceInWei",
          "type": "uint256"
        },
        {
          "internalType": "uint256",
          "name": "_index",
          "type": "uint256"
        }
      ],
      "stateMutability": "nonpayable",
      "type": "constructor"
    },
    {
      "stateMutability": "nonpayable",
      "type": "fallback"
    },
    {
      "inputs": [],
      "name": "carIndex",
      "outputs": [
        {
          "internalType": "uint256",
          "name": "",
          "type": "uint256"
        }
      ],
      "stateMutability": "view",
      "type": "function"
    },
    {
      "inputs": [],
      "name": "carInfo",
      "outputs": [
        {
          "internalType": "uint256",
          "name": "mileage",
          "type": "uint256"
        },
        {
          "internalType": "string",
          "name": "VINStatus",
          "type": "string"
        },
        {
          "internalType": "string",
          "name": "tuningStatus",
          "type": "string"
        },
        {
          "internalType": "string",
          "name": "specialHistory",
          "type": "string"
        },
        {
          "internalType": "string",
          "name": "changeOfPurpose",
          "type": "string"
        },
        {
          "internalType": "string",
          "name": "color",
          "type": "string"
        }
      ],
      "stateMutability": "view",
      "type": "function"
    },
    {
      "inputs": [],
      "name": "priceInWei",
      "outputs": [
        {
          "internalType": "uint256",
          "name": "",
          "type": "uint256"
        }
      ],
      "stateMutability": "view",
      "type": "function"
    },
    {
      "inputs": [],
      "name": "pricePaid",
      "outputs": [
        {
          "internalType": "uint256",
          "name": "",
          "type": "uint256"
        }
      ],
      "stateMutability": "view",
      "type": "function"
    },
    {
      "stateMutability": "payable",
      "type": "receive"
    },
    {
      "inputs": [
        {
          "internalType": "uint256",
          "name": "_mileage",
          "type": "uint256"
        },
        {
          "internalType": "string",
          "name": "_VINStatus",
          "type": "string"
        },
        {
          "internalType": "string",
          "name": "_tuningStatus",
          "type": "string"
        },
        {
          "internalType": "string",
          "name": "_specialHistory",
          "type": "string"
        },
        {
          "internalType": "string",
          "name": "_chageOfPurpose",
          "type": "string"
        },
        {
          "internalType": "string",
          "name": "_color",
          "type": "string"
        }
      ],
      "name": "basicCarInfoCheck",
      "outputs": [],
      "stateMutability": "nonpayable",
      "type": "function"
    },
    {
      "inputs": [
        {
          "internalType": "string",
          "name": "componentName",
          "type": "string"
        },
        {
          "internalType": "string",
          "name": "status",
          "type": "string"
        }
      ],
      "name": "addCarComponentMaintenanceReceipt",
      "outputs": [],
      "stateMutability": "nonpayable",
      "type": "function"
    },
    {
      "inputs": [],
      "name": "getCarInfo",
      "outputs": [
        {
          "internalType": "uint256",
          "name": "",
          "type": "uint256"
        },
        {
          "internalType": "string",
          "name": "",
          "type": "string"
        },
        {
          "internalType": "string",
          "name": "",
          "type": "string"
        },
        {
          "internalType": "string",
          "name": "",
          "type": "string"
        },
        {
          "internalType": "string",
          "name": "",
          "type": "string"
        },
        {
          "internalType": "string",
          "name": "",
          "type": "string"
        }
      ],
      "stateMutability": "view",
      "type": "function"
    }
  ],
  "bytecode": "0x608060405234801561001057600080fd5b506040516115b93803806115b98339818101604052606081101561003357600080fd5b81019080805190602001909291908051906020019092919080519060200190929190505050816000819055508060028190555082600960006101000a81548173ffffffffffffffffffffffffffffffffffffffff021916908373ffffffffffffffffffffffffffffffffffffffff160217905550505050611500806100b96000396000f3fe6080604052600436106100745760003560e01c80633c8da5881161004e5780633c8da5881461093757806389794d0014610962578063a89756451461098d578063dbe947ea146109b85761033b565b806312c6e8e21461034a57806318377182146105915780631ce156f9146107d85761033b565b3661033b576000600154146100f1576040517f08c379a00000000000000000000000000000000000000000000000000000000081526004018080602001828103825260148152602001807f4974656d206973207061696420616c726561647900000000000000000000000081525060200191505060405180910390fd5b3460005414610168576040517f08c379a000000000000000000000000000000000000000000000000000000000815260040180806020018281038252601a8152602001807f4f6e6c792066756c6c207061796d656e747320616c6c6f77656400000000000081525060200191505060405180910390fd5b346001600082825401925050819055506000600960009054906101000a900473ffffffffffffffffffffffffffffffffffffffff1673ffffffffffffffffffffffffffffffffffffffff1634600254604051602401808281526020019150506040516020818303038152906040527f800fb83f000000000000000000000000000000000000000000000000000000007bffffffffffffffffffffffffffffffffffffffffffffffffffffffff19166020820180517bffffffffffffffffffffffffffffffffffffffffffffffffffffffff83818316178352505050506040518082805190602001908083835b602083106102775780518252602082019150602081019050602083039250610254565b6001836020036101000a03801982511681845116808217855250505050505090500191505060006040518083038185875af1925050503d80600081146102d9576040519150601f19603f3d011682016040523d82523d6000602084013e6102de565b606091505b5050905080610338576040517f08c379a000000000000000000000000000000000000000000000000000000000815260040180806020018281038252602c81526020018061149f602c913960400191505060405180910390fd5b50005b34801561034757600080fd5b50005b34801561035657600080fd5b5061035f610ce6565b60405180878152602001806020018060200180602001806020018060200186810386528b818151815260200191508051906020019080838360005b838110156103b557808201518184015260208101905061039a565b50505050905090810190601f1680156103e25780820380516001836020036101000a031916815260200191505b5086810385528a818151815260200191508051906020019080838360005b8381101561041b578082015181840152602081019050610400565b50505050905090810190601f1680156104485780820380516001836020036101000a031916815260200191505b50868103845289818151815260200191508051906020019080838360005b83811015610481578082015181840152602081019050610466565b50505050905090810190601f1680156104ae5780820380516001836020036101000a031916815260200191505b50868103835288818151815260200191508051906020019080838360005b838110156104e75780820151818401526020810190506104cc565b50505050905090810190601f1680156105145780820380516001836020036101000a031916815260200191505b50868103825287818151815260200191508051906020019080838360005b8381101561054d578082015181840152602081019050610532565b50505050905090810190601f16801561057a5780820380516001836020036101000a031916815260200191505b509b50505050505050505050505060405180910390f35b34801561059d57600080fd5b506105a6611008565b60405180878152602001806020018060200180602001806020018060200186810386528b818151815260200191508051906020019080838360005b838110156105fc5780820151818401526020810190506105e1565b50505050905090810190601f1680156106295780820380516001836020036101000a031916815260200191505b5086810385528a818151815260200191508051906020019080838360005b83811015610662578082015181840152602081019050610647565b50505050905090810190601f16801561068f5780820380516001836020036101000a031916815260200191505b50868103845289818151815260200191508051906020019080838360005b838110156106c85780820151818401526020810190506106ad565b50505050905090810190601f1680156106f55780820380516001836020036101000a031916815260200191505b50868103835288818151815260200191508051906020019080838360005b8381101561072e578082015181840152602081019050610713565b50505050905090810190601f16801561075b5780820380516001836020036101000a031916815260200191505b50868103825287818151815260200191508051906020019080838360005b83811015610794578082015181840152602081019050610779565b50505050905090810190601f1680156107c15780820380516001836020036101000a031916815260200191505b509b50505050505050505050505060405180910390f35b3480156107e457600080fd5b50610935600480360360408110156107fb57600080fd5b810190808035906020019064010000000081111561081857600080fd5b82018360208201111561082a57600080fd5b8035906020019184600183028401116401000000008311171561084c57600080fd5b91908080601f016020809104026020016040519081016040528093929190818152602001838380828437600081840152601f19601f820116905080830192505050505050509192919290803590602001906401000000008111156108af57600080fd5b8201836020820111156108c157600080fd5b803590602001918460018302840111640100000000831117156108e357600080fd5b91908080601f016020809104026020016040519081016040528093929190818152602001838380828437600081840152601f19601f820116905080830192505050505050509192919290505050611350565b005b34801561094357600080fd5b5061094c611354565b6040518082815260200191505060405180910390f35b34801561096e57600080fd5b5061097761135a565b6040518082815260200191505060405180910390f35b34801561099957600080fd5b506109a2611360565b6040518082815260200191505060405180910390f35b3480156109c457600080fd5b50610ce4600480360360c08110156109db57600080fd5b810190808035906020019092919080359060200190640100000000811115610a0257600080fd5b820183602082011115610a1457600080fd5b80359060200191846001830284011164010000000083111715610a3657600080fd5b91908080601f016020809104026020016040519081016040528093929190818152602001838380828437600081840152601f19601f82011690508083019250505050505050919291929080359060200190640100000000811115610a9957600080fd5b820183602082011115610aab57600080fd5b80359060200191846001830284011164010000000083111715610acd57600080fd5b91908080601f016020809104026020016040519081016040528093929190818152602001838380828437600081840152601f19601f82011690508083019250505050505050919291929080359060200190640100000000811115610b3057600080fd5b820183602082011115610b4257600080fd5b80359060200191846001830284011164010000000083111715610b6457600080fd5b91908080601f016020809104026020016040519081016040528093929190818152602001838380828437600081840152601f19601f82011690508083019250505050505050919291929080359060200190640100000000811115610bc757600080fd5b820183602082011115610bd957600080fd5b80359060200191846001830284011164010000000083111715610bfb57600080fd5b91908080601f016020809104026020016040519081016040528093929190818152602001838380828437600081840152601f19601f82011690508083019250505050505050919291929080359060200190640100000000811115610c5e57600080fd5b820183602082011115610c7057600080fd5b80359060200191846001830284011164010000000083111715610c9257600080fd5b91908080601f016020809104026020016040519081016040528093929190818152602001838380828437600081840152601f19601f820116905080830192505050505050509192919290505050611366565b005b6003806000015490806001018054600181600116156101000203166002900480601f016020809104026020016040519081016040528092919081815260200182805460018160011615610100020316600290048015610d865780601f10610d5b57610100808354040283529160200191610d86565b820191906000526020600020905b815481529060010190602001808311610d6957829003601f168201915b505050505090806002018054600181600116156101000203166002900480601f016020809104026020016040519081016040528092919081815260200182805460018160011615610100020316600290048015610e245780601f10610df957610100808354040283529160200191610e24565b820191906000526020600020905b815481529060010190602001808311610e0757829003601f168201915b505050505090806003018054600181600116156101000203166002900480601f016020809104026020016040519081016040528092919081815260200182805460018160011615610100020316600290048015610ec25780601f10610e9757610100808354040283529160200191610ec2565b820191906000526020600020905b815481529060010190602001808311610ea557829003601f168201915b505050505090806004018054600181600116156101000203166002900480601f016020809104026020016040519081016040528092919081815260200182805460018160011615610100020316600290048015610f605780601f10610f3557610100808354040283529160200191610f60565b820191906000526020600020905b815481529060010190602001808311610f4357829003601f168201915b505050505090806005018054600181600116156101000203166002900480601f016020809104026020016040519081016040528092919081815260200182805460018160011615610100020316600290048015610ffe5780601f10610fd357610100808354040283529160200191610ffe565b820191906000526020600020905b815481529060010190602001808311610fe157829003601f168201915b5050505050905086565b60006060806060806060600360000154600360010160036002016003800160036004016003600501848054600181600116156101000203166002900480601f0160208091040260200160405190810160405280929190818152602001828054600181600116156101000203166002900480156110c55780601f1061109a576101008083540402835291602001916110c5565b820191906000526020600020905b8154815290600101906020018083116110a857829003601f168201915b50505050509450838054600181600116156101000203166002900480601f0160208091040260200160405190810160405280929190818152602001828054600181600116156101000203166002900480156111615780601f1061113657610100808354040283529160200191611161565b820191906000526020600020905b81548152906001019060200180831161114457829003601f168201915b50505050509350828054600181600116156101000203166002900480601f0160208091040260200160405190810160405280929190818152602001828054600181600116156101000203166002900480156111fd5780601f106111d2576101008083540402835291602001916111fd565b820191906000526020600020905b8154815290600101906020018083116111e057829003601f168201915b50505050509250818054600181600116156101000203166002900480601f0160208091040260200160405190810160405280929190818152602001828054600181600116156101000203166002900480156112995780601f1061126e57610100808354040283529160200191611299565b820191906000526020600020905b81548152906001019060200180831161127c57829003601f168201915b50505050509150808054600181600116156101000203166002900480601f0160208091040260200160405190810160405280929190818152602001828054600181600116156101000203166002900480156113355780601f1061130a57610100808354040283529160200191611335565b820191906000526020600020905b81548152906001019060200180831161131857829003601f168201915b50505050509050955095509550955095509550909192939495565b5050565b60005481565b60015481565b60025481565b8560036000018190555084600360010190805190602001906113899291906113f9565b5083600360020190805190602001906113a39291906113f9565b50826003800190805190602001906113bc9291906113f9565b5081600360040190805190602001906113d69291906113f9565b5080600360050190805190602001906113f09291906113f9565b50505050505050565b828054600181600116156101000203166002900490600052602060002090601f016020900481019282601f1061143a57805160ff1916838001178555611468565b82800160010185558215611468579182015b8281111561146757825182559160200191906001019061144c565b5b5090506114759190611479565b5090565b61149b91905b8082111561149757600081600090555060010161147f565b5090565b9056fe546865207472616e73616374696f6e207761736e2774207375636365737366756c2c2063616e63656c696e67a2646970667358221220d3923eef05d8965865c6e5e2ce646598fea8339c9240dac5e3ddc1300e393f4664736f6c63430006010033",
  "source": "//SPDX-License-Identifier: GPL-3.0\r\n\r\npragma solidity ^0.6.0;\r\n\r\nimport \"./CarManager.sol\";\r\n/*\r\n    2021-05-25 Car\r\n    Description: Manage Car List made by Users\r\n    \r\n    attributes:\r\n    1. uint priceInWei  :  it means car's price deployed by user. The unit of price is Wei\r\n    2. uint pricePaid   :  'paid' price. if full payment was not offered, buy offer is rejected.\r\n    3. uint carIndex    :   The value of the index occupied in the carManager Contract\r\n    4. S_CarInfo carInfo:   car's basic info(ex. mileage, VINStatus)\r\n    \r\n    5. mapping(uint => S_ComponentMaintenanceReceipt) S_ComponentMaintenanceReceipts: car's component maintenance Receipt list\r\n    6. mapping(uint => S_InfoMaintenanceReceipt) S_InfoMaintenanceReceipts          : car's info maintenace Receipt list\r\n    \r\n    \r\n    function:\r\n    1. constructor : Receive three variable, Car's name and Price and parent Contract(Carmanager Contract)\r\n    2. basicCarInfoCheck : initialize car's basic info (ex. car's mileage, VINStatus ...). it must be called to give proper information to the buyer. it's result will be save in attribute 'carInfo'\r\n    3. addCarComponentMaintanceReceipt : add fixing Car's defective component receipt to attribute componentMaintenanceIndex\r\n    \r\n    TODO(2021-05-25):\r\n    we must add each of maintenanceRecipt(Info, Component). \r\n    There's no other way but to do the whole thing right now.\r\n*/\r\n\r\n\r\ncontract Car {\r\n    struct S_CarInfo {\r\n        uint mileage;\r\n        string VINStatus;\r\n        string tuningStatus;\r\n        string specialHistory;\r\n        string changeOfPurpose;\r\n        string color;\r\n    }\r\n    \r\n    uint public priceInWei;\r\n    uint public pricePaid;\r\n    uint public carIndex;\r\n    S_CarInfo public carInfo;\r\n    CarManager parentContract;\r\n    \r\n    \r\n    struct S_ComponentMaintenanceReceipt {\r\n        string componentName;\r\n        string status;\r\n    }\r\n    \r\n    mapping(uint => S_ComponentMaintenanceReceipt) S_ComponentMaintenanceReceipts;\r\n    uint componentMaintenanceIndex;\r\n    \r\n    struct S_InfoMaintenanceReceipt {\r\n        S_CarInfo infoName;\r\n        string status;\r\n    }\r\n    \r\n    mapping(uint => S_InfoMaintenanceReceipt) S_InfoMaintenanceReceipts;\r\n    uint infoMaintenanceIndex;\r\n    \r\n    constructor(CarManager _parentContract, uint _priceInWei, uint _index) public{\r\n        priceInWei = _priceInWei;\r\n        carIndex = _index;\r\n        parentContract = _parentContract;\r\n    }\r\n    \r\n    function basicCarInfoCheck(uint _mileage, string memory _VINStatus, string memory _tuningStatus, string memory _specialHistory, string memory _chageOfPurpose, string memory _color) public {\r\n        carInfo.mileage = _mileage;\r\n        carInfo.VINStatus = _VINStatus;\r\n        carInfo.tuningStatus = _tuningStatus;\r\n        carInfo.specialHistory = _specialHistory;\r\n        carInfo.changeOfPurpose = _chageOfPurpose;\r\n        carInfo.color = _color;\r\n    }\r\n    \r\n    function addCarComponentMaintenanceReceipt(string memory componentName, string memory status) public{\r\n    }\r\n\r\n    function getCarInfo() public view returns(uint, string memory, string memory, string memory, string memory, string memory) {\r\n        return (\r\n            carInfo.mileage,\r\n            carInfo.VINStatus,\r\n            carInfo.tuningStatus,\r\n            carInfo.specialHistory,\r\n            carInfo.changeOfPurpose,\r\n            carInfo.color\r\n        );\r\n    }\r\n    \r\n\r\n    receive() external payable {\r\n        require(pricePaid == 0, \"Item is paid already\");\r\n        require(priceInWei == msg.value, \"Only full payments allowed\");\r\n        pricePaid += msg.value;\r\n        \r\n        (bool success, ) = address(parentContract).call.value(msg.value)(abi.encodeWithSignature(\"triggerPayment(uint256)\", carIndex));\r\n        require(success, \"The transaction wasn't successful, canceling\");\r\n    }\r\n    \r\n    fallback() external {\r\n        \r\n    }\r\n}",
  "sourcePath": "C:\\Users\\abc83\\blockchainClient\\contracts\\Car.sol",
  "compiler": {
    "name": "solc",
    "version": "0.6.1+commit.e6f7d5a4.Emscripten.clang"
  },
  "schemaVersion": "3.0.20",
  "updatedAt": "2021-06-14T09:30:29.101Z",
  "devdoc": {
    "methods": {}
  },
  "userdoc": {
    "methods": {}
  }
}