{
  "contractName": "Car",
  "abi": [
    {
      "inputs": [
        {
          "internalType": "contract CarManager",
          "name": "_parentContract",
          "type": "address"
        },
        {
          "internalType": "uint256",
          "name": "_priceInWei",
          "type": "uint256"
        },
        {
          "internalType": "uint256",
          "name": "_index",
          "type": "uint256"
        }
      ],
      "stateMutability": "nonpayable",
      "type": "constructor"
    },
    {
      "stateMutability": "nonpayable",
      "type": "fallback"
    },
    {
      "inputs": [],
      "name": "carIndex",
      "outputs": [
        {
          "internalType": "uint256",
          "name": "",
          "type": "uint256"
        }
      ],
      "stateMutability": "view",
      "type": "function"
    },
    {
      "inputs": [],
      "name": "carInfo",
      "outputs": [
        {
          "internalType": "uint256",
          "name": "mileage",
          "type": "uint256"
        },
        {
          "internalType": "string",
          "name": "VINStatus",
          "type": "string"
        },
        {
          "internalType": "string",
          "name": "tuningStatus",
          "type": "string"
        },
        {
          "internalType": "string",
          "name": "specialHistory",
          "type": "string"
        },
        {
          "internalType": "string",
          "name": "changeOfPurpose",
          "type": "string"
        },
        {
          "internalType": "string",
          "name": "color",
          "type": "string"
        }
      ],
      "stateMutability": "view",
      "type": "function"
    },
    {
      "inputs": [],
      "name": "priceInWei",
      "outputs": [
        {
          "internalType": "uint256",
          "name": "",
          "type": "uint256"
        }
      ],
      "stateMutability": "view",
      "type": "function"
    },
    {
      "inputs": [],
      "name": "pricePaid",
      "outputs": [
        {
          "internalType": "uint256",
          "name": "",
          "type": "uint256"
        }
      ],
      "stateMutability": "view",
      "type": "function"
    },
    {
      "stateMutability": "payable",
      "type": "receive"
    },
    {
      "inputs": [
        {
          "internalType": "uint256",
          "name": "_mileage",
          "type": "uint256"
        },
        {
          "internalType": "string",
          "name": "_VINStatus",
          "type": "string"
        },
        {
          "internalType": "string",
          "name": "_tuningStatus",
          "type": "string"
        },
        {
          "internalType": "string",
          "name": "_specialHistory",
          "type": "string"
        },
        {
          "internalType": "string",
          "name": "_chageOfPurpose",
          "type": "string"
        },
        {
          "internalType": "string",
          "name": "_color",
          "type": "string"
        }
      ],
      "name": "basicCarInfoCheck",
      "outputs": [],
      "stateMutability": "nonpayable",
      "type": "function"
    },
    {
      "inputs": [
        {
          "internalType": "string",
          "name": "componentName",
          "type": "string"
        },
        {
          "internalType": "string",
          "name": "status",
          "type": "string"
        }
      ],
      "name": "addCarComponentMaintenanceReceipt",
      "outputs": [],
      "stateMutability": "nonpayable",
      "type": "function"
    }
  ],
  "bytecode": "0x608060405234801561001057600080fd5b5060405161100f38038061100f8339818101604052606081101561003357600080fd5b81019080805190602001909291908051906020019092919080519060200190929190505050816000819055508060028190555082600960006101000a81548173ffffffffffffffffffffffffffffffffffffffff021916908373ffffffffffffffffffffffffffffffffffffffff160217905550505050610f56806100b96000396000f3fe6080604052600436106100595760003560e01c806312c6e8e21461032f5780631ce156f9146105765780633c8da588146106d557806389794d0014610700578063a89756451461072b578063dbe947ea1461075657610320565b36610320576000600154146100d6576040517f08c379a00000000000000000000000000000000000000000000000000000000081526004018080602001828103825260148152602001807f4974656d206973207061696420616c726561647900000000000000000000000081525060200191505060405180910390fd5b346000541461014d576040517f08c379a000000000000000000000000000000000000000000000000000000000815260040180806020018281038252601a8152602001807f4f6e6c792066756c6c207061796d656e747320616c6c6f77656400000000000081525060200191505060405180910390fd5b346001600082825401925050819055506000600960009054906101000a900473ffffffffffffffffffffffffffffffffffffffff1673ffffffffffffffffffffffffffffffffffffffff1634600254604051602401808281526020019150506040516020818303038152906040527f800fb83f000000000000000000000000000000000000000000000000000000007bffffffffffffffffffffffffffffffffffffffffffffffffffffffff19166020820180517bffffffffffffffffffffffffffffffffffffffffffffffffffffffff83818316178352505050506040518082805190602001908083835b6020831061025c5780518252602082019150602081019050602083039250610239565b6001836020036101000a03801982511681845116808217855250505050505090500191505060006040518083038185875af1925050503d80600081146102be576040519150601f19603f3d011682016040523d82523d6000602084013e6102c3565b606091505b505090508061031d576040517f08c379a000000000000000000000000000000000000000000000000000000000815260040180806020018281038252602c815260200180610ef5602c913960400191505060405180910390fd5b50005b34801561032c57600080fd5b50005b34801561033b57600080fd5b50610344610a84565b60405180878152602001806020018060200180602001806020018060200186810386528b818151815260200191508051906020019080838360005b8381101561039a57808201518184015260208101905061037f565b50505050905090810190601f1680156103c75780820380516001836020036101000a031916815260200191505b5086810385528a818151815260200191508051906020019080838360005b838110156104005780820151818401526020810190506103e5565b50505050905090810190601f16801561042d5780820380516001836020036101000a031916815260200191505b50868103845289818151815260200191508051906020019080838360005b8381101561046657808201518184015260208101905061044b565b50505050905090810190601f1680156104935780820380516001836020036101000a031916815260200191505b50868103835288818151815260200191508051906020019080838360005b838110156104cc5780820151818401526020810190506104b1565b50505050905090810190601f1680156104f95780820380516001836020036101000a031916815260200191505b50868103825287818151815260200191508051906020019080838360005b83811015610532578082015181840152602081019050610517565b50505050905090810190601f16801561055f5780820380516001836020036101000a031916815260200191505b509b50505050505050505050505060405180910390f35b34801561058257600080fd5b506106d36004803603604081101561059957600080fd5b81019080803590602001906401000000008111156105b657600080fd5b8201836020820111156105c857600080fd5b803590602001918460018302840111640100000000831117156105ea57600080fd5b91908080601f016020809104026020016040519081016040528093929190818152602001838380828437600081840152601f19601f8201169050808301925050505050505091929192908035906020019064010000000081111561064d57600080fd5b82018360208201111561065f57600080fd5b8035906020019184600183028401116401000000008311171561068157600080fd5b91908080601f016020809104026020016040519081016040528093929190818152602001838380828437600081840152601f19601f820116905080830192505050505050509192919290505050610da6565b005b3480156106e157600080fd5b506106ea610daa565b6040518082815260200191505060405180910390f35b34801561070c57600080fd5b50610715610db0565b6040518082815260200191505060405180910390f35b34801561073757600080fd5b50610740610db6565b6040518082815260200191505060405180910390f35b34801561076257600080fd5b50610a82600480360360c081101561077957600080fd5b8101908080359060200190929190803590602001906401000000008111156107a057600080fd5b8201836020820111156107b257600080fd5b803590602001918460018302840111640100000000831117156107d457600080fd5b91908080601f016020809104026020016040519081016040528093929190818152602001838380828437600081840152601f19601f8201169050808301925050505050505091929192908035906020019064010000000081111561083757600080fd5b82018360208201111561084957600080fd5b8035906020019184600183028401116401000000008311171561086b57600080fd5b91908080601f016020809104026020016040519081016040528093929190818152602001838380828437600081840152601f19601f820116905080830192505050505050509192919290803590602001906401000000008111156108ce57600080fd5b8201836020820111156108e057600080fd5b8035906020019184600183028401116401000000008311171561090257600080fd5b91908080601f016020809104026020016040519081016040528093929190818152602001838380828437600081840152601f19601f8201169050808301925050505050505091929192908035906020019064010000000081111561096557600080fd5b82018360208201111561097757600080fd5b8035906020019184600183028401116401000000008311171561099957600080fd5b91908080601f016020809104026020016040519081016040528093929190818152602001838380828437600081840152601f19601f820116905080830192505050505050509192919290803590602001906401000000008111156109fc57600080fd5b820183602082011115610a0e57600080fd5b80359060200191846001830284011164010000000083111715610a3057600080fd5b91908080601f016020809104026020016040519081016040528093929190818152602001838380828437600081840152601f19601f820116905080830192505050505050509192919290505050610dbc565b005b6003806000015490806001018054600181600116156101000203166002900480601f016020809104026020016040519081016040528092919081815260200182805460018160011615610100020316600290048015610b245780601f10610af957610100808354040283529160200191610b24565b820191906000526020600020905b815481529060010190602001808311610b0757829003601f168201915b505050505090806002018054600181600116156101000203166002900480601f016020809104026020016040519081016040528092919081815260200182805460018160011615610100020316600290048015610bc25780601f10610b9757610100808354040283529160200191610bc2565b820191906000526020600020905b815481529060010190602001808311610ba557829003601f168201915b505050505090806003018054600181600116156101000203166002900480601f016020809104026020016040519081016040528092919081815260200182805460018160011615610100020316600290048015610c605780601f10610c3557610100808354040283529160200191610c60565b820191906000526020600020905b815481529060010190602001808311610c4357829003601f168201915b505050505090806004018054600181600116156101000203166002900480601f016020809104026020016040519081016040528092919081815260200182805460018160011615610100020316600290048015610cfe5780601f10610cd357610100808354040283529160200191610cfe565b820191906000526020600020905b815481529060010190602001808311610ce157829003601f168201915b505050505090806005018054600181600116156101000203166002900480601f016020809104026020016040519081016040528092919081815260200182805460018160011615610100020316600290048015610d9c5780601f10610d7157610100808354040283529160200191610d9c565b820191906000526020600020905b815481529060010190602001808311610d7f57829003601f168201915b5050505050905086565b5050565b60005481565b60015481565b60025481565b856003600001819055508460036001019080519060200190610ddf929190610e4f565b508360036002019080519060200190610df9929190610e4f565b5082600380019080519060200190610e12929190610e4f565b508160036004019080519060200190610e2c929190610e4f565b508060036005019080519060200190610e46929190610e4f565b50505050505050565b828054600181600116156101000203166002900490600052602060002090601f016020900481019282601f10610e9057805160ff1916838001178555610ebe565b82800160010185558215610ebe579182015b82811115610ebd578251825591602001919060010190610ea2565b5b509050610ecb9190610ecf565b5090565b610ef191905b80821115610eed576000816000905550600101610ed5565b5090565b9056fe546865207472616e73616374696f6e207761736e2774207375636365737366756c2c2063616e63656c696e67a264697066735822122042f0ab00273dff420ec92713d47e7f8fd1e867dd167f3a5fa40ed30e850b44d664736f6c63430006010033",
  "source": "//SPDX-License-Identifier: GPL-3.0\r\n\r\npragma solidity ^0.6.0;\r\n\r\nimport \"./CarManager.sol\";\r\n/*\r\n    2021-05-25 Car\r\n    Description: Manage Car List made by Users\r\n    \r\n    attributes:\r\n    1. uint priceInWei  :  it means car's price deployed by user. The unit of price is Wei\r\n    2. uint pricePaid   :  'paid' price. if full payment was not offered, buy offer is rejected.\r\n    3. uint carIndex    :   The value of the index occupied in the carManager Contract\r\n    4. S_CarInfo carInfo:   car's basic info(ex. mileage, VINStatus)\r\n    \r\n    5. mapping(uint => S_ComponentMaintenanceReceipt) S_ComponentMaintenanceReceipts: car's component maintenance Receipt list\r\n    6. mapping(uint => S_InfoMaintenanceReceipt) S_InfoMaintenanceReceipts          : car's info maintenace Receipt list\r\n    \r\n    \r\n    function:\r\n    1. constructor : Receive three variable, Car's name and Price and parent Contract(Carmanager Contract)\r\n    2. basicCarInfoCheck : initialize car's basic info (ex. car's mileage, VINStatus ...). it must be called to give proper information to the buyer. it's result will be save in attribute 'carInfo'\r\n    3. addCarComponentMaintanceReceipt : add fixing Car's defective component receipt to attribute componentMaintenanceIndex\r\n    \r\n    TODO(2021-05-25):\r\n    we must add each of maintenanceRecipt(Info, Component). \r\n    There's no other way but to do the whole thing right now.\r\n*/\r\n\r\n\r\ncontract Car {\r\n    struct S_CarInfo {\r\n        uint mileage;\r\n        string VINStatus;\r\n        string tuningStatus;\r\n        string specialHistory;\r\n        string changeOfPurpose;\r\n        string color;\r\n    }\r\n    \r\n    uint public priceInWei;\r\n    uint public pricePaid;\r\n    uint public carIndex;\r\n    S_CarInfo public carInfo;\r\n    CarManager parentContract;\r\n    \r\n    \r\n    struct S_ComponentMaintenanceReceipt {\r\n        string componentName;\r\n        string status;\r\n    }\r\n    \r\n    mapping(uint => S_ComponentMaintenanceReceipt) S_ComponentMaintenanceReceipts;\r\n    uint componentMaintenanceIndex;\r\n    \r\n    struct S_InfoMaintenanceReceipt {\r\n        S_CarInfo infoName;\r\n        string status;\r\n    }\r\n    \r\n    mapping(uint => S_InfoMaintenanceReceipt) S_InfoMaintenanceReceipts;\r\n    uint infoMaintenanceIndex;\r\n    \r\n    constructor(CarManager _parentContract, uint _priceInWei, uint _index) public{\r\n        priceInWei = _priceInWei;\r\n        carIndex = _index;\r\n        parentContract = _parentContract;\r\n    }\r\n    \r\n    function basicCarInfoCheck(uint _mileage, string memory _VINStatus, string memory _tuningStatus, string memory _specialHistory, string memory _chageOfPurpose, string memory _color) public {\r\n        carInfo.mileage = _mileage;\r\n        carInfo.VINStatus = _VINStatus;\r\n        carInfo.tuningStatus = _tuningStatus;\r\n        carInfo.specialHistory = _specialHistory;\r\n        carInfo.changeOfPurpose = _chageOfPurpose;\r\n        carInfo.color = _color;\r\n    }\r\n    \r\n    function addCarComponentMaintenanceReceipt(string memory componentName, string memory status) public{\r\n    }\r\n    \r\n\r\n    receive() external payable {\r\n        require(pricePaid == 0, \"Item is paid already\");\r\n        require(priceInWei == msg.value, \"Only full payments allowed\");\r\n        pricePaid += msg.value;\r\n        \r\n        (bool success, ) = address(parentContract).call.value(msg.value)(abi.encodeWithSignature(\"triggerPayment(uint256)\", carIndex));\r\n        require(success, \"The transaction wasn't successful, canceling\");\r\n    }\r\n    \r\n    fallback() external {\r\n        \r\n    }\r\n}",
  "sourcePath": "C:\\Users\\abc83\\blockchainClient\\contracts\\Car.sol",
  "compiler": {
    "name": "solc",
    "version": "0.6.1+commit.e6f7d5a4.Emscripten.clang"
  },
  "schemaVersion": "3.0.20",
  "updatedAt": "2021-06-09T13:23:42.066Z",
  "devdoc": {
    "methods": {}
  },
  "userdoc": {
    "methods": {}
  }
}