{
  "contractName": "CarManager",
  "abi": [
    {
      "anonymous": false,
      "inputs": [
        {
          "indexed": false,
          "internalType": "uint256",
          "name": "_carIndex",
          "type": "uint256"
        },
        {
          "indexed": false,
          "internalType": "uint256",
          "name": "_step",
          "type": "uint256"
        },
        {
          "indexed": false,
          "internalType": "address",
          "name": "_carAddress",
          "type": "address"
        }
      ],
      "name": "SupplyChainStep",
      "type": "event"
    },
    {
      "inputs": [
        {
          "internalType": "uint256",
          "name": "",
          "type": "uint256"
        }
      ],
      "name": "cars",
      "outputs": [
        {
          "internalType": "contract Car",
          "name": "_car",
          "type": "address"
        },
        {
          "internalType": "string",
          "name": "_identifier",
          "type": "string"
        },
        {
          "internalType": "uint256",
          "name": "_carPrice",
          "type": "uint256"
        },
        {
          "internalType": "enum CarManager.SupplyChainState",
          "name": "_state",
          "type": "uint8"
        }
      ],
      "stateMutability": "view",
      "type": "function",
      "constant": true
    },
    {
      "inputs": [],
      "name": "isOwner",
      "outputs": [
        {
          "internalType": "bool",
          "name": "",
          "type": "bool"
        }
      ],
      "stateMutability": "view",
      "type": "function",
      "constant": true
    },
    {
      "inputs": [
        {
          "internalType": "string",
          "name": "_identifier",
          "type": "string"
        },
        {
          "internalType": "uint256",
          "name": "_carPrice",
          "type": "uint256"
        }
      ],
      "name": "createCar",
      "outputs": [],
      "stateMutability": "nonpayable",
      "type": "function"
    },
    {
      "inputs": [
        {
          "internalType": "uint256",
          "name": "_carIndex",
          "type": "uint256"
        }
      ],
      "name": "triggerPayment",
      "outputs": [],
      "stateMutability": "payable",
      "type": "function",
      "payable": true
    },
    {
      "inputs": [
        {
          "internalType": "uint256",
          "name": "_carIndex",
          "type": "uint256"
        }
      ],
      "name": "triggerDelivery",
      "outputs": [],
      "stateMutability": "nonpayable",
      "type": "function"
    }
  ],
  "bytecode": "0x6080604052336000806101000a81548173ffffffffffffffffffffffffffffffffffffffff021916908373ffffffffffffffffffffffffffffffffffffffff160217905550611b94806100536000396000f3fe60806040526004361061004a5760003560e01c8063800fb83f1461004f5780638f32d59b1461007d578063cd31831e146100ac578063ecadf8b8146100e7578063f7746e36146101b9575b600080fd5b61007b6004803603602081101561006557600080fd5b81019080803590602001909291905050506102bc565b005b34801561008957600080fd5b50610092610507565b604051808215151515815260200191505060405180910390f35b3480156100b857600080fd5b506100e5600480360360208110156100cf57600080fd5b810190808035906020019092919050505061055e565b005b3480156100f357600080fd5b506101b76004803603604081101561010a57600080fd5b810190808035906020019064010000000081111561012757600080fd5b82018360208201111561013957600080fd5b8035906020019184600183028401116401000000008311171561015b57600080fd5b91908080601f016020809104026020016040519081016040528093929190818152602001838380828437600081840152601f19601f8201169050808301925050505050505091929192908035906020019092919050505061079b565b005b3480156101c557600080fd5b506101f2600480360360208110156101dc57600080fd5b81019080803590602001909291905050506109a8565b604051808573ffffffffffffffffffffffffffffffffffffffff1673ffffffffffffffffffffffffffffffffffffffff1681526020018060200184815260200183600281111561023e57fe5b60ff168152602001828103825285818151815260200191508051906020019080838360005b8381101561027e578082015181840152602081019050610263565b50505050905090810190601f1680156102ab5780820380516001836020036101000a031916815260200191505b509550505050505060405180910390f35b34600160008381526020019081526020016000206002015414610347576040517f08c379a000000000000000000000000000000000000000000000000000000000815260040180806020018281038252601b8152602001807f4f6e6c792066756c6c207061796d656e7473206163636570746564000000000081525060200191505060405180910390fd5b6000600281111561035457fe5b6001600083815260200190815260200160002060030160009054906101000a900460ff16600281111561038357fe5b146103f6576040517f08c379a000000000000000000000000000000000000000000000000000000000815260040180806020018281038252601c8152602001807f4974656d206973206675727468657220696e2074686520636861696e0000000081525060200191505060405180910390fd5b600180600083815260200190815260200160002060030160006101000a81548160ff0219169083600281111561042857fe5b02179055507fa4035636e99f06b7651a604c1019fa4e8779fe68ef27eeb74dff2de348f6199b816001600084815260200190815260200160002060030160009054906101000a900460ff16600281111561047e57fe5b6001600085815260200190815260200160002060000160009054906101000a900473ffffffffffffffffffffffffffffffffffffffff16604051808481526020018381526020018273ffffffffffffffffffffffffffffffffffffffff1673ffffffffffffffffffffffffffffffffffffffff168152602001935050505060405180910390a150565b60008060009054906101000a900473ffffffffffffffffffffffffffffffffffffffff1673ffffffffffffffffffffffffffffffffffffffff163373ffffffffffffffffffffffffffffffffffffffff1614905090565b610566610507565b6105d8576040517f08c379a00000000000000000000000000000000000000000000000000000000081526004018080602001828103825260158152602001807f596f75277265206e6f7420746865206f776e657221000000000000000000000081525060200191505060405180910390fd5b600160028111156105e557fe5b6001600083815260200190815260200160002060030160009054906101000a900460ff16600281111561061457fe5b14610687576040517f08c379a000000000000000000000000000000000000000000000000000000000815260040180806020018281038252601c8152602001807f4974656d206973206675727468657220696e2074686520636861696e0000000081525060200191505060405180910390fd5b60026001600083815260200190815260200160002060030160006101000a81548160ff021916908360028111156106ba57fe5b02179055507fa4035636e99f06b7651a604c1019fa4e8779fe68ef27eeb74dff2de348f6199b8160016000600254815260200190815260200160002060030160009054906101000a900460ff16600281111561071257fe5b6001600085815260200190815260200160002060000160009054906101000a900473ffffffffffffffffffffffffffffffffffffffff16604051808481526020018381526020018273ffffffffffffffffffffffffffffffffffffffff1673ffffffffffffffffffffffffffffffffffffffff168152602001935050505060405180910390a150565b600030826002546040516107ae90610a9d565b808473ffffffffffffffffffffffffffffffffffffffff1673ffffffffffffffffffffffffffffffffffffffff1681526020018381526020018281526020019350505050604051809103906000f08015801561080e573d6000803e3d6000fd5b5090508060016000600254815260200190815260200160002060000160006101000a81548173ffffffffffffffffffffffffffffffffffffffff021916908373ffffffffffffffffffffffffffffffffffffffff160217905550826001600060025481526020019081526020016000206001019080519060200190610894929190610aaa565b508160016000600254815260200190815260200160002060020181905550600060016000600254815260200190815260200160002060030160006101000a81548160ff021916908360028111156108e757fe5b02179055507fa4035636e99f06b7651a604c1019fa4e8779fe68ef27eeb74dff2de348f6199b60025460016000600254815260200190815260200160002060030160009054906101000a900460ff16600281111561094157fe5b83604051808481526020018381526020018273ffffffffffffffffffffffffffffffffffffffff1673ffffffffffffffffffffffffffffffffffffffff168152602001935050505060405180910390a1600260008154809291906001019190505550505050565b60016020528060005260406000206000915090508060000160009054906101000a900473ffffffffffffffffffffffffffffffffffffffff1690806001018054600181600116156101000203166002900480601f016020809104026020016040519081016040528092919081815260200182805460018160011615610100020316600290048015610a7a5780601f10610a4f57610100808354040283529160200191610a7a565b820191906000526020600020905b815481529060010190602001808311610a5d57829003601f168201915b5050505050908060020154908060030160009054906101000a900460ff16905084565b61100f80610b5083390190565b828054600181600116156101000203166002900490600052602060002090601f016020900481019282601f10610aeb57805160ff1916838001178555610b19565b82800160010185558215610b19579182015b82811115610b18578251825591602001919060010190610afd565b5b509050610b269190610b2a565b5090565b610b4c91905b80821115610b48576000816000905550600101610b30565b5090565b9056fe608060405234801561001057600080fd5b5060405161100f38038061100f8339818101604052606081101561003357600080fd5b81019080805190602001909291908051906020019092919080519060200190929190505050816000819055508060028190555082600960006101000a81548173ffffffffffffffffffffffffffffffffffffffff021916908373ffffffffffffffffffffffffffffffffffffffff160217905550505050610f56806100b96000396000f3fe6080604052600436106100595760003560e01c806312c6e8e21461032f5780631ce156f9146105765780633c8da588146106d557806389794d0014610700578063a89756451461072b578063dbe947ea1461075657610320565b36610320576000600154146100d6576040517f08c379a00000000000000000000000000000000000000000000000000000000081526004018080602001828103825260148152602001807f4974656d206973207061696420616c726561647900000000000000000000000081525060200191505060405180910390fd5b346000541461014d576040517f08c379a000000000000000000000000000000000000000000000000000000000815260040180806020018281038252601a8152602001807f4f6e6c792066756c6c207061796d656e747320616c6c6f77656400000000000081525060200191505060405180910390fd5b346001600082825401925050819055506000600960009054906101000a900473ffffffffffffffffffffffffffffffffffffffff1673ffffffffffffffffffffffffffffffffffffffff1634600254604051602401808281526020019150506040516020818303038152906040527f800fb83f000000000000000000000000000000000000000000000000000000007bffffffffffffffffffffffffffffffffffffffffffffffffffffffff19166020820180517bffffffffffffffffffffffffffffffffffffffffffffffffffffffff83818316178352505050506040518082805190602001908083835b6020831061025c5780518252602082019150602081019050602083039250610239565b6001836020036101000a03801982511681845116808217855250505050505090500191505060006040518083038185875af1925050503d80600081146102be576040519150601f19603f3d011682016040523d82523d6000602084013e6102c3565b606091505b505090508061031d576040517f08c379a000000000000000000000000000000000000000000000000000000000815260040180806020018281038252602c815260200180610ef5602c913960400191505060405180910390fd5b50005b34801561032c57600080fd5b50005b34801561033b57600080fd5b50610344610a84565b60405180878152602001806020018060200180602001806020018060200186810386528b818151815260200191508051906020019080838360005b8381101561039a57808201518184015260208101905061037f565b50505050905090810190601f1680156103c75780820380516001836020036101000a031916815260200191505b5086810385528a818151815260200191508051906020019080838360005b838110156104005780820151818401526020810190506103e5565b50505050905090810190601f16801561042d5780820380516001836020036101000a031916815260200191505b50868103845289818151815260200191508051906020019080838360005b8381101561046657808201518184015260208101905061044b565b50505050905090810190601f1680156104935780820380516001836020036101000a031916815260200191505b50868103835288818151815260200191508051906020019080838360005b838110156104cc5780820151818401526020810190506104b1565b50505050905090810190601f1680156104f95780820380516001836020036101000a031916815260200191505b50868103825287818151815260200191508051906020019080838360005b83811015610532578082015181840152602081019050610517565b50505050905090810190601f16801561055f5780820380516001836020036101000a031916815260200191505b509b50505050505050505050505060405180910390f35b34801561058257600080fd5b506106d36004803603604081101561059957600080fd5b81019080803590602001906401000000008111156105b657600080fd5b8201836020820111156105c857600080fd5b803590602001918460018302840111640100000000831117156105ea57600080fd5b91908080601f016020809104026020016040519081016040528093929190818152602001838380828437600081840152601f19601f8201169050808301925050505050505091929192908035906020019064010000000081111561064d57600080fd5b82018360208201111561065f57600080fd5b8035906020019184600183028401116401000000008311171561068157600080fd5b91908080601f016020809104026020016040519081016040528093929190818152602001838380828437600081840152601f19601f820116905080830192505050505050509192919290505050610da6565b005b3480156106e157600080fd5b506106ea610daa565b6040518082815260200191505060405180910390f35b34801561070c57600080fd5b50610715610db0565b6040518082815260200191505060405180910390f35b34801561073757600080fd5b50610740610db6565b6040518082815260200191505060405180910390f35b34801561076257600080fd5b50610a82600480360360c081101561077957600080fd5b8101908080359060200190929190803590602001906401000000008111156107a057600080fd5b8201836020820111156107b257600080fd5b803590602001918460018302840111640100000000831117156107d457600080fd5b91908080601f016020809104026020016040519081016040528093929190818152602001838380828437600081840152601f19601f8201169050808301925050505050505091929192908035906020019064010000000081111561083757600080fd5b82018360208201111561084957600080fd5b8035906020019184600183028401116401000000008311171561086b57600080fd5b91908080601f016020809104026020016040519081016040528093929190818152602001838380828437600081840152601f19601f820116905080830192505050505050509192919290803590602001906401000000008111156108ce57600080fd5b8201836020820111156108e057600080fd5b8035906020019184600183028401116401000000008311171561090257600080fd5b91908080601f016020809104026020016040519081016040528093929190818152602001838380828437600081840152601f19601f8201169050808301925050505050505091929192908035906020019064010000000081111561096557600080fd5b82018360208201111561097757600080fd5b8035906020019184600183028401116401000000008311171561099957600080fd5b91908080601f016020809104026020016040519081016040528093929190818152602001838380828437600081840152601f19601f820116905080830192505050505050509192919290803590602001906401000000008111156109fc57600080fd5b820183602082011115610a0e57600080fd5b80359060200191846001830284011164010000000083111715610a3057600080fd5b91908080601f016020809104026020016040519081016040528093929190818152602001838380828437600081840152601f19601f820116905080830192505050505050509192919290505050610dbc565b005b6003806000015490806001018054600181600116156101000203166002900480601f016020809104026020016040519081016040528092919081815260200182805460018160011615610100020316600290048015610b245780601f10610af957610100808354040283529160200191610b24565b820191906000526020600020905b815481529060010190602001808311610b0757829003601f168201915b505050505090806002018054600181600116156101000203166002900480601f016020809104026020016040519081016040528092919081815260200182805460018160011615610100020316600290048015610bc25780601f10610b9757610100808354040283529160200191610bc2565b820191906000526020600020905b815481529060010190602001808311610ba557829003601f168201915b505050505090806003018054600181600116156101000203166002900480601f016020809104026020016040519081016040528092919081815260200182805460018160011615610100020316600290048015610c605780601f10610c3557610100808354040283529160200191610c60565b820191906000526020600020905b815481529060010190602001808311610c4357829003601f168201915b505050505090806004018054600181600116156101000203166002900480601f016020809104026020016040519081016040528092919081815260200182805460018160011615610100020316600290048015610cfe5780601f10610cd357610100808354040283529160200191610cfe565b820191906000526020600020905b815481529060010190602001808311610ce157829003601f168201915b505050505090806005018054600181600116156101000203166002900480601f016020809104026020016040519081016040528092919081815260200182805460018160011615610100020316600290048015610d9c5780601f10610d7157610100808354040283529160200191610d9c565b820191906000526020600020905b815481529060010190602001808311610d7f57829003601f168201915b5050505050905086565b5050565b60005481565b60015481565b60025481565b856003600001819055508460036001019080519060200190610ddf929190610e4f565b508360036002019080519060200190610df9929190610e4f565b5082600380019080519060200190610e12929190610e4f565b508160036004019080519060200190610e2c929190610e4f565b508060036005019080519060200190610e46929190610e4f565b50505050505050565b828054600181600116156101000203166002900490600052602060002090601f016020900481019282601f10610e9057805160ff1916838001178555610ebe565b82800160010185558215610ebe579182015b82811115610ebd578251825591602001919060010190610ea2565b5b509050610ecb9190610ecf565b5090565b610ef191905b80821115610eed576000816000905550600101610ed5565b5090565b9056fe546865207472616e73616374696f6e207761736e2774207375636365737366756c2c2063616e63656c696e67a264697066735822122038400850ebe36ef96471115078938f2f1c9cea502d2cf6e5d0f17ece26da179064736f6c63430006010033a26469706673582212205a2836ab94ad0ad48e028b32dce57576d6f4b19af3513b141d13c4014227a9f464736f6c63430006010033",
  "source": "//SPDX-License-Identifier: GPL-3.0\r\n\r\npragma solidity ^0.6.0;\r\n\r\nimport \"./Ownable.sol\";\r\nimport \"./Car.sol\";\r\n\r\n/*\r\n    2021-05-25 CarManager\r\n    Description: Manage Car List made by Users\r\n    function:\r\n    1. Create Car : Create Car Contract\r\n    2. Trigger Payment : If buyer pay proper value to car Contract, Change state to Paid \r\n    3. Trigger Delivery : After delivery is completed, Change Car's state to delivery\r\n*/\r\n\r\n\r\ncontract CarManager is Ownable{\r\n    \r\n    enum SupplyChainState {Created, Paid, Delivered}\r\n    \r\n    struct S_Car {\r\n        Car _car;\r\n        string _identifier;\r\n        uint _carPrice;\r\n        CarManager.SupplyChainState _state;\r\n    }\r\n    \r\n    mapping(uint => S_Car) public cars;\r\n    uint carIndex;\r\n    \r\n    function createCar(string memory _identifier, uint _carPrice) public {\r\n        Car car = new Car(this, _carPrice, carIndex);\r\n        cars[carIndex]._car = car;\r\n        cars[carIndex]._identifier = _identifier;\r\n        cars[carIndex]._carPrice = _carPrice;\r\n        cars[carIndex]._state = SupplyChainState.Created;\r\n        \r\n        emit SupplyChainStep(carIndex, uint(cars[carIndex]._state), address(car));\r\n        carIndex++;\r\n    }\r\n    \r\n    event SupplyChainStep(uint _carIndex, uint _step, address _carAddress);\r\n    \r\n    function triggerPayment(uint _carIndex) public payable {\r\n        require(cars[_carIndex]._carPrice == msg.value, \"Only full payments accepted\");\r\n        require(cars[_carIndex]._state == SupplyChainState.Created, \"Item is further in the chain\");\r\n        cars[_carIndex]._state = SupplyChainState.Paid;\r\n        \r\n        emit SupplyChainStep(_carIndex, uint(cars[_carIndex]._state), address(cars[_carIndex]._car));\r\n    }\r\n    \r\n    function triggerDelivery(uint _carIndex) public onlyOwner {\r\n        require(cars[_carIndex]._state == SupplyChainState.Paid, \"Item is further in the chain\");\r\n        cars[_carIndex]._state = SupplyChainState.Delivered;\r\n        \r\n        emit SupplyChainStep(_carIndex, uint(cars[carIndex]._state), address(cars[_carIndex]._car));\r\n    }\r\n    \r\n}",
  "sourcePath": "C:\\Users\\abc83\\blockchainClient\\contracts\\CarManager.sol",
  "compiler": {
    "name": "solc",
    "version": "0.6.1+commit.e6f7d5a4.Emscripten.clang"
  },
  "schemaVersion": "3.0.20",
  "updatedAt": "2021-05-30T07:59:27.386Z",
  "networkType": "ethereum",
  "devdoc": {
    "methods": {}
  },
  "userdoc": {
    "methods": {}
  }
}