{
  "contractName": "CarManager",
  "abi": [
    {
      "anonymous": false,
      "inputs": [
        {
          "indexed": false,
          "internalType": "uint256",
          "name": "_carIndex",
          "type": "uint256"
        },
        {
          "indexed": false,
          "internalType": "uint256",
          "name": "_step",
          "type": "uint256"
        },
        {
          "indexed": false,
          "internalType": "address",
          "name": "_carAddress",
          "type": "address"
        }
      ],
      "name": "SupplyChainStep",
      "type": "event"
    },
    {
      "inputs": [],
      "name": "carIndex",
      "outputs": [
        {
          "internalType": "uint256",
          "name": "",
          "type": "uint256"
        }
      ],
      "stateMutability": "view",
      "type": "function"
    },
    {
      "inputs": [
        {
          "internalType": "uint256",
          "name": "",
          "type": "uint256"
        }
      ],
      "name": "cars",
      "outputs": [
        {
          "internalType": "contract Car",
          "name": "_car",
          "type": "address"
        },
        {
          "internalType": "string",
          "name": "_brand",
          "type": "string"
        },
        {
          "internalType": "string",
          "name": "_model",
          "type": "string"
        },
        {
          "internalType": "string",
          "name": "_carNum",
          "type": "string"
        },
        {
          "internalType": "uint256",
          "name": "_carPrice",
          "type": "uint256"
        },
        {
          "internalType": "bool",
          "name": "_initialMaintenanced",
          "type": "bool"
        },
        {
          "internalType": "enum CarManager.SupplyChainState",
          "name": "_state",
          "type": "uint8"
        }
      ],
      "stateMutability": "view",
      "type": "function"
    },
    {
      "inputs": [],
      "name": "isOwner",
      "outputs": [
        {
          "internalType": "bool",
          "name": "",
          "type": "bool"
        }
      ],
      "stateMutability": "view",
      "type": "function"
    },
    {
      "inputs": [
        {
          "internalType": "string",
          "name": "_brand",
          "type": "string"
        },
        {
          "internalType": "string",
          "name": "_model",
          "type": "string"
        },
        {
          "internalType": "string",
          "name": "_carNum",
          "type": "string"
        },
        {
          "internalType": "uint256",
          "name": "_carPrice",
          "type": "uint256"
        }
      ],
      "name": "createCar",
      "outputs": [],
      "stateMutability": "nonpayable",
      "type": "function"
    },
    {
      "inputs": [
        {
          "internalType": "uint256",
          "name": "_carIndex",
          "type": "uint256"
        }
      ],
      "name": "setMaintenanceCarTrue",
      "outputs": [],
      "stateMutability": "nonpayable",
      "type": "function"
    },
    {
      "inputs": [
        {
          "internalType": "uint256",
          "name": "_carIndex",
          "type": "uint256"
        }
      ],
      "name": "setMaintenanceCarFalse",
      "outputs": [],
      "stateMutability": "nonpayable",
      "type": "function"
    },
    {
      "inputs": [
        {
          "internalType": "uint256",
          "name": "_carIndex",
          "type": "uint256"
        }
      ],
      "name": "triggerPayment",
      "outputs": [],
      "stateMutability": "payable",
      "type": "function"
    },
    {
      "inputs": [
        {
          "internalType": "uint256",
          "name": "_carIndex",
          "type": "uint256"
        }
      ],
      "name": "triggerDelivery",
      "outputs": [],
      "stateMutability": "nonpayable",
      "type": "function"
    }
  ],
  "bytecode": "0x60806040526000600255336000806101000a81548173ffffffffffffffffffffffffffffffffffffffff021916908373ffffffffffffffffffffffffffffffffffffffff160217905550612666806100586000396000f3fe60806040526004361061007b5760003560e01c80638f32d59b1161004e5780638f32d59b14610324578063a897564514610353578063cd31831e1461037e578063f7746e36146103b95761007b565b8063276aa65e1461008057806376985486146100bb578063800fb83f146102bb5780638e85fe9f146102e9575b600080fd5b34801561008c57600080fd5b506100b9600480360360208110156100a357600080fd5b810190808035906020019092919050505061059f565b005b3480156100c757600080fd5b506102b9600480360360808110156100de57600080fd5b81019080803590602001906401000000008111156100fb57600080fd5b82018360208201111561010d57600080fd5b8035906020019184600183028401116401000000008311171561012f57600080fd5b91908080601f016020809104026020016040519081016040528093929190818152602001838380828437600081840152601f19601f8201169050808301925050505050505091929192908035906020019064010000000081111561019257600080fd5b8201836020820111156101a457600080fd5b803590602001918460018302840111640100000000831117156101c657600080fd5b91908080601f016020809104026020016040519081016040528093929190818152602001838380828437600081840152601f19601f8201169050808301925050505050505091929192908035906020019064010000000081111561022957600080fd5b82018360208201111561023b57600080fd5b8035906020019184600183028401116401000000008311171561025d57600080fd5b91908080601f016020809104026020016040519081016040528093929190818152602001838380828437600081840152601f19601f820116905080830192505050505050509192919290803590602001909291905050506105d0565b005b6102e7600480360360208110156102d157600080fd5b810190808035906020019092919050505061086a565b005b3480156102f557600080fd5b506103226004803603602081101561030c57600080fd5b8101908080359060200190929190505050610ab5565b005b34801561033057600080fd5b50610339610ae7565b604051808215151515815260200191505060405180910390f35b34801561035f57600080fd5b50610368610b3e565b6040518082815260200191505060405180910390f35b34801561038a57600080fd5b506103b7600480360360208110156103a157600080fd5b8101908080359060200190929190505050610b44565b005b3480156103c557600080fd5b506103f2600480360360208110156103dc57600080fd5b8101908080359060200190929190505050610d81565b604051808873ffffffffffffffffffffffffffffffffffffffff1673ffffffffffffffffffffffffffffffffffffffff1681526020018060200180602001806020018781526020018615151515815260200185600281111561045057fe5b60ff16815260200184810384528a818151815260200191508051906020019080838360005b83811015610490578082015181840152602081019050610475565b50505050905090810190601f1680156104bd5780820380516001836020036101000a031916815260200191505b50848103835289818151815260200191508051906020019080838360005b838110156104f65780820151818401526020810190506104db565b50505050905090810190601f1680156105235780820380516001836020036101000a031916815260200191505b50848103825288818151815260200191508051906020019080838360005b8381101561055c578082015181840152602081019050610541565b50505050905090810190601f1680156105895780820380516001836020036101000a031916815260200191505b509a505050505050505050505060405180910390f35b600180600083815260200190815260200160002060050160006101000a81548160ff02191690831515021790555050565b600030826002546040516105e390610fc5565b808473ffffffffffffffffffffffffffffffffffffffff1673ffffffffffffffffffffffffffffffffffffffff1681526020018381526020018281526020019350505050604051809103906000f080158015610643573d6000803e3d6000fd5b5090508060016000600254815260200190815260200160002060000160006101000a81548173ffffffffffffffffffffffffffffffffffffffff021916908373ffffffffffffffffffffffffffffffffffffffff1602179055508460016000600254815260200190815260200160002060010190805190602001906106c9929190610fd2565b508360016000600254815260200190815260200160002060020190805190602001906106f6929190610fd2565b50826001600060025481526020019081526020016000206003019080519060200190610723929190610fd2565b508160016000600254815260200190815260200160002060040181905550600060016000600254815260200190815260200160002060050160006101000a81548160ff021916908315150217905550600060016000600254815260200190815260200160002060050160016101000a81548160ff021916908360028111156107a757fe5b02179055507fa4035636e99f06b7651a604c1019fa4e8779fe68ef27eeb74dff2de348f6199b60025460016000600254815260200190815260200160002060050160019054906101000a900460ff16600281111561080157fe5b83604051808481526020018381526020018273ffffffffffffffffffffffffffffffffffffffff1673ffffffffffffffffffffffffffffffffffffffff168152602001935050505060405180910390a16002600081548092919060010191905055505050505050565b346001600083815260200190815260200160002060040154146108f5576040517f08c379a000000000000000000000000000000000000000000000000000000000815260040180806020018281038252601b8152602001807f4f6e6c792066756c6c207061796d656e7473206163636570746564000000000081525060200191505060405180910390fd5b6000600281111561090257fe5b6001600083815260200190815260200160002060050160019054906101000a900460ff16600281111561093157fe5b146109a4576040517f08c379a000000000000000000000000000000000000000000000000000000000815260040180806020018281038252601c8152602001807f4974656d206973206675727468657220696e2074686520636861696e0000000081525060200191505060405180910390fd5b600180600083815260200190815260200160002060050160016101000a81548160ff021916908360028111156109d657fe5b02179055507fa4035636e99f06b7651a604c1019fa4e8779fe68ef27eeb74dff2de348f6199b816001600084815260200190815260200160002060050160019054906101000a900460ff166002811115610a2c57fe5b6001600085815260200190815260200160002060000160009054906101000a900473ffffffffffffffffffffffffffffffffffffffff16604051808481526020018381526020018273ffffffffffffffffffffffffffffffffffffffff1673ffffffffffffffffffffffffffffffffffffffff168152602001935050505060405180910390a150565b60006001600083815260200190815260200160002060050160006101000a81548160ff02191690831515021790555050565b60008060009054906101000a900473ffffffffffffffffffffffffffffffffffffffff1673ffffffffffffffffffffffffffffffffffffffff163373ffffffffffffffffffffffffffffffffffffffff1614905090565b60025481565b610b4c610ae7565b610bbe576040517f08c379a00000000000000000000000000000000000000000000000000000000081526004018080602001828103825260158152602001807f596f75277265206e6f7420746865206f776e657221000000000000000000000081525060200191505060405180910390fd5b60016002811115610bcb57fe5b6001600083815260200190815260200160002060050160019054906101000a900460ff166002811115610bfa57fe5b14610c6d576040517f08c379a000000000000000000000000000000000000000000000000000000000815260040180806020018281038252601c8152602001807f4974656d206973206675727468657220696e2074686520636861696e0000000081525060200191505060405180910390fd5b60026001600083815260200190815260200160002060050160016101000a81548160ff02191690836002811115610ca057fe5b02179055507fa4035636e99f06b7651a604c1019fa4e8779fe68ef27eeb74dff2de348f6199b8160016000600254815260200190815260200160002060050160019054906101000a900460ff166002811115610cf857fe5b6001600085815260200190815260200160002060000160009054906101000a900473ffffffffffffffffffffffffffffffffffffffff16604051808481526020018381526020018273ffffffffffffffffffffffffffffffffffffffff1673ffffffffffffffffffffffffffffffffffffffff168152602001935050505060405180910390a150565b60016020528060005260406000206000915090508060000160009054906101000a900473ffffffffffffffffffffffffffffffffffffffff1690806001018054600181600116156101000203166002900480601f016020809104026020016040519081016040528092919081815260200182805460018160011615610100020316600290048015610e535780601f10610e2857610100808354040283529160200191610e53565b820191906000526020600020905b815481529060010190602001808311610e3657829003601f168201915b505050505090806002018054600181600116156101000203166002900480601f016020809104026020016040519081016040528092919081815260200182805460018160011615610100020316600290048015610ef15780601f10610ec657610100808354040283529160200191610ef1565b820191906000526020600020905b815481529060010190602001808311610ed457829003601f168201915b505050505090806003018054600181600116156101000203166002900480601f016020809104026020016040519081016040528092919081815260200182805460018160011615610100020316600290048015610f8f5780601f10610f6457610100808354040283529160200191610f8f565b820191906000526020600020905b815481529060010190602001808311610f7257829003601f168201915b5050505050908060040154908060050160009054906101000a900460ff16908060050160019054906101000a900460ff16905087565b6115b98061107883390190565b828054600181600116156101000203166002900490600052602060002090601f016020900481019282601f1061101357805160ff1916838001178555611041565b82800160010185558215611041579182015b82811115611040578251825591602001919060010190611025565b5b50905061104e9190611052565b5090565b61107491905b80821115611070576000816000905550600101611058565b5090565b9056fe608060405234801561001057600080fd5b506040516115b93803806115b98339818101604052606081101561003357600080fd5b81019080805190602001909291908051906020019092919080519060200190929190505050816000819055508060028190555082600960006101000a81548173ffffffffffffffffffffffffffffffffffffffff021916908373ffffffffffffffffffffffffffffffffffffffff160217905550505050611500806100b96000396000f3fe6080604052600436106100745760003560e01c80633c8da5881161004e5780633c8da5881461093757806389794d0014610962578063a89756451461098d578063dbe947ea146109b85761033b565b806312c6e8e21461034a57806318377182146105915780631ce156f9146107d85761033b565b3661033b576000600154146100f1576040517f08c379a00000000000000000000000000000000000000000000000000000000081526004018080602001828103825260148152602001807f4974656d206973207061696420616c726561647900000000000000000000000081525060200191505060405180910390fd5b3460005414610168576040517f08c379a000000000000000000000000000000000000000000000000000000000815260040180806020018281038252601a8152602001807f4f6e6c792066756c6c207061796d656e747320616c6c6f77656400000000000081525060200191505060405180910390fd5b346001600082825401925050819055506000600960009054906101000a900473ffffffffffffffffffffffffffffffffffffffff1673ffffffffffffffffffffffffffffffffffffffff1634600254604051602401808281526020019150506040516020818303038152906040527f800fb83f000000000000000000000000000000000000000000000000000000007bffffffffffffffffffffffffffffffffffffffffffffffffffffffff19166020820180517bffffffffffffffffffffffffffffffffffffffffffffffffffffffff83818316178352505050506040518082805190602001908083835b602083106102775780518252602082019150602081019050602083039250610254565b6001836020036101000a03801982511681845116808217855250505050505090500191505060006040518083038185875af1925050503d80600081146102d9576040519150601f19603f3d011682016040523d82523d6000602084013e6102de565b606091505b5050905080610338576040517f08c379a000000000000000000000000000000000000000000000000000000000815260040180806020018281038252602c81526020018061149f602c913960400191505060405180910390fd5b50005b34801561034757600080fd5b50005b34801561035657600080fd5b5061035f610ce6565b60405180878152602001806020018060200180602001806020018060200186810386528b818151815260200191508051906020019080838360005b838110156103b557808201518184015260208101905061039a565b50505050905090810190601f1680156103e25780820380516001836020036101000a031916815260200191505b5086810385528a818151815260200191508051906020019080838360005b8381101561041b578082015181840152602081019050610400565b50505050905090810190601f1680156104485780820380516001836020036101000a031916815260200191505b50868103845289818151815260200191508051906020019080838360005b83811015610481578082015181840152602081019050610466565b50505050905090810190601f1680156104ae5780820380516001836020036101000a031916815260200191505b50868103835288818151815260200191508051906020019080838360005b838110156104e75780820151818401526020810190506104cc565b50505050905090810190601f1680156105145780820380516001836020036101000a031916815260200191505b50868103825287818151815260200191508051906020019080838360005b8381101561054d578082015181840152602081019050610532565b50505050905090810190601f16801561057a5780820380516001836020036101000a031916815260200191505b509b50505050505050505050505060405180910390f35b34801561059d57600080fd5b506105a6611008565b60405180878152602001806020018060200180602001806020018060200186810386528b818151815260200191508051906020019080838360005b838110156105fc5780820151818401526020810190506105e1565b50505050905090810190601f1680156106295780820380516001836020036101000a031916815260200191505b5086810385528a818151815260200191508051906020019080838360005b83811015610662578082015181840152602081019050610647565b50505050905090810190601f16801561068f5780820380516001836020036101000a031916815260200191505b50868103845289818151815260200191508051906020019080838360005b838110156106c85780820151818401526020810190506106ad565b50505050905090810190601f1680156106f55780820380516001836020036101000a031916815260200191505b50868103835288818151815260200191508051906020019080838360005b8381101561072e578082015181840152602081019050610713565b50505050905090810190601f16801561075b5780820380516001836020036101000a031916815260200191505b50868103825287818151815260200191508051906020019080838360005b83811015610794578082015181840152602081019050610779565b50505050905090810190601f1680156107c15780820380516001836020036101000a031916815260200191505b509b50505050505050505050505060405180910390f35b3480156107e457600080fd5b50610935600480360360408110156107fb57600080fd5b810190808035906020019064010000000081111561081857600080fd5b82018360208201111561082a57600080fd5b8035906020019184600183028401116401000000008311171561084c57600080fd5b91908080601f016020809104026020016040519081016040528093929190818152602001838380828437600081840152601f19601f820116905080830192505050505050509192919290803590602001906401000000008111156108af57600080fd5b8201836020820111156108c157600080fd5b803590602001918460018302840111640100000000831117156108e357600080fd5b91908080601f016020809104026020016040519081016040528093929190818152602001838380828437600081840152601f19601f820116905080830192505050505050509192919290505050611350565b005b34801561094357600080fd5b5061094c611354565b6040518082815260200191505060405180910390f35b34801561096e57600080fd5b5061097761135a565b6040518082815260200191505060405180910390f35b34801561099957600080fd5b506109a2611360565b6040518082815260200191505060405180910390f35b3480156109c457600080fd5b50610ce4600480360360c08110156109db57600080fd5b810190808035906020019092919080359060200190640100000000811115610a0257600080fd5b820183602082011115610a1457600080fd5b80359060200191846001830284011164010000000083111715610a3657600080fd5b91908080601f016020809104026020016040519081016040528093929190818152602001838380828437600081840152601f19601f82011690508083019250505050505050919291929080359060200190640100000000811115610a9957600080fd5b820183602082011115610aab57600080fd5b80359060200191846001830284011164010000000083111715610acd57600080fd5b91908080601f016020809104026020016040519081016040528093929190818152602001838380828437600081840152601f19601f82011690508083019250505050505050919291929080359060200190640100000000811115610b3057600080fd5b820183602082011115610b4257600080fd5b80359060200191846001830284011164010000000083111715610b6457600080fd5b91908080601f016020809104026020016040519081016040528093929190818152602001838380828437600081840152601f19601f82011690508083019250505050505050919291929080359060200190640100000000811115610bc757600080fd5b820183602082011115610bd957600080fd5b80359060200191846001830284011164010000000083111715610bfb57600080fd5b91908080601f016020809104026020016040519081016040528093929190818152602001838380828437600081840152601f19601f82011690508083019250505050505050919291929080359060200190640100000000811115610c5e57600080fd5b820183602082011115610c7057600080fd5b80359060200191846001830284011164010000000083111715610c9257600080fd5b91908080601f016020809104026020016040519081016040528093929190818152602001838380828437600081840152601f19601f820116905080830192505050505050509192919290505050611366565b005b6003806000015490806001018054600181600116156101000203166002900480601f016020809104026020016040519081016040528092919081815260200182805460018160011615610100020316600290048015610d865780601f10610d5b57610100808354040283529160200191610d86565b820191906000526020600020905b815481529060010190602001808311610d6957829003601f168201915b505050505090806002018054600181600116156101000203166002900480601f016020809104026020016040519081016040528092919081815260200182805460018160011615610100020316600290048015610e245780601f10610df957610100808354040283529160200191610e24565b820191906000526020600020905b815481529060010190602001808311610e0757829003601f168201915b505050505090806003018054600181600116156101000203166002900480601f016020809104026020016040519081016040528092919081815260200182805460018160011615610100020316600290048015610ec25780601f10610e9757610100808354040283529160200191610ec2565b820191906000526020600020905b815481529060010190602001808311610ea557829003601f168201915b505050505090806004018054600181600116156101000203166002900480601f016020809104026020016040519081016040528092919081815260200182805460018160011615610100020316600290048015610f605780601f10610f3557610100808354040283529160200191610f60565b820191906000526020600020905b815481529060010190602001808311610f4357829003601f168201915b505050505090806005018054600181600116156101000203166002900480601f016020809104026020016040519081016040528092919081815260200182805460018160011615610100020316600290048015610ffe5780601f10610fd357610100808354040283529160200191610ffe565b820191906000526020600020905b815481529060010190602001808311610fe157829003601f168201915b5050505050905086565b60006060806060806060600360000154600360010160036002016003800160036004016003600501848054600181600116156101000203166002900480601f0160208091040260200160405190810160405280929190818152602001828054600181600116156101000203166002900480156110c55780601f1061109a576101008083540402835291602001916110c5565b820191906000526020600020905b8154815290600101906020018083116110a857829003601f168201915b50505050509450838054600181600116156101000203166002900480601f0160208091040260200160405190810160405280929190818152602001828054600181600116156101000203166002900480156111615780601f1061113657610100808354040283529160200191611161565b820191906000526020600020905b81548152906001019060200180831161114457829003601f168201915b50505050509350828054600181600116156101000203166002900480601f0160208091040260200160405190810160405280929190818152602001828054600181600116156101000203166002900480156111fd5780601f106111d2576101008083540402835291602001916111fd565b820191906000526020600020905b8154815290600101906020018083116111e057829003601f168201915b50505050509250818054600181600116156101000203166002900480601f0160208091040260200160405190810160405280929190818152602001828054600181600116156101000203166002900480156112995780601f1061126e57610100808354040283529160200191611299565b820191906000526020600020905b81548152906001019060200180831161127c57829003601f168201915b50505050509150808054600181600116156101000203166002900480601f0160208091040260200160405190810160405280929190818152602001828054600181600116156101000203166002900480156113355780601f1061130a57610100808354040283529160200191611335565b820191906000526020600020905b81548152906001019060200180831161131857829003601f168201915b50505050509050955095509550955095509550909192939495565b5050565b60005481565b60015481565b60025481565b8560036000018190555084600360010190805190602001906113899291906113f9565b5083600360020190805190602001906113a39291906113f9565b50826003800190805190602001906113bc9291906113f9565b5081600360040190805190602001906113d69291906113f9565b5080600360050190805190602001906113f09291906113f9565b50505050505050565b828054600181600116156101000203166002900490600052602060002090601f016020900481019282601f1061143a57805160ff1916838001178555611468565b82800160010185558215611468579182015b8281111561146757825182559160200191906001019061144c565b5b5090506114759190611479565b5090565b61149b91905b8082111561149757600081600090555060010161147f565b5090565b9056fe546865207472616e73616374696f6e207761736e2774207375636365737366756c2c2063616e63656c696e67a2646970667358221220bfd6fdc591fcec31c5f2ff27f0c6b7c6657f779347b7bd475f477c525f3e3e1f64736f6c63430006010033a26469706673582212203d6ca381b4e40409021093525033b0fcb8f8c8348e7d56df58da358aee49a43f64736f6c63430006010033",
  "source": "//SPDX-License-Identifier: GPL-3.0\r\n\r\npragma solidity ^0.6.0;\r\n\r\nimport \"./Ownable.sol\";\r\nimport \"./Car.sol\";\r\n\r\n/*\r\n    2021-05-25 CarManager\r\n    Description: Manage Car List made by Users\r\n    function:\r\n    1. Create Car : Create Car Contract\r\n    2. Trigger Payment : If buyer pay proper value to car Contract, Change state to Paid \r\n    3. Trigger Delivery : After delivery is completed, Change Car's state to delivery\r\n*/\r\n\r\n\r\ncontract CarManager is Ownable{\r\n    \r\n    enum SupplyChainState {Created, Paid, Delivered}\r\n    \r\n    // 2021-06-12\r\n    // _carIndexInStruct         \r\n    //         \r\n    struct S_Car {\r\n        Car _car;\r\n        string _brand;\r\n        string _model;\r\n        string _carNum; \r\n        uint _carPrice;\r\n        bool _initialMaintenanced;\r\n        CarManager.SupplyChainState _state;\r\n    }\r\n    \r\n    mapping(uint => S_Car) public cars;\r\n    uint public carIndex = 0;\r\n\r\n\r\n    \r\n    function createCar(string memory _brand, string memory _model, string memory _carNum, uint _carPrice) public {\r\n        Car car = new Car(this, _carPrice, carIndex);\r\n        cars[carIndex]._car = car;\r\n        cars[carIndex]._brand = _brand;\r\n        cars[carIndex]._model = _model;\r\n        cars[carIndex]._carNum = _carNum;\r\n        cars[carIndex]._carPrice = _carPrice;\r\n        cars[carIndex]._initialMaintenanced = false;\r\n        cars[carIndex]._state = SupplyChainState.Created;\r\n        \r\n        emit SupplyChainStep(carIndex, uint(cars[carIndex]._state), address(car));\r\n        carIndex++;\r\n    }\r\n\r\n    function setMaintenanceCarTrue(uint _carIndex) public {\r\n        cars[_carIndex]._initialMaintenanced = true;\r\n    }\r\n\r\n    function setMaintenanceCarFalse(uint _carIndex) public {\r\n        cars[_carIndex]._initialMaintenanced = false;\r\n    }\r\n    \r\n    event SupplyChainStep(uint _carIndex, uint _step, address _carAddress);\r\n    \r\n    function triggerPayment(uint _carIndex) public payable {\r\n        require(cars[_carIndex]._carPrice == msg.value, \"Only full payments accepted\");\r\n        require(cars[_carIndex]._state == SupplyChainState.Created, \"Item is further in the chain\");\r\n        cars[_carIndex]._state = SupplyChainState.Paid;\r\n        \r\n        emit SupplyChainStep(_carIndex, uint(cars[_carIndex]._state), address(cars[_carIndex]._car));\r\n    }\r\n    \r\n    function triggerDelivery(uint _carIndex) public onlyOwner {\r\n        require(cars[_carIndex]._state == SupplyChainState.Paid, \"Item is further in the chain\");\r\n        cars[_carIndex]._state = SupplyChainState.Delivered;\r\n        \r\n        emit SupplyChainStep(_carIndex, uint(cars[carIndex]._state), address(cars[_carIndex]._car));\r\n    }\r\n\r\n\r\n    \r\n}",
  "sourcePath": "C:\\Users\\abc83\\blockchainClient\\contracts\\CarManager.sol",
  "compiler": {
    "name": "solc",
    "version": "0.6.1+commit.e6f7d5a4.Emscripten.clang"
  },
  "schemaVersion": "3.0.20",
  "updatedAt": "2021-06-12T12:44:57.532Z",
  "devdoc": {
    "methods": {}
  },
  "userdoc": {
    "methods": {}
  }
}